:100000000C942A000C943C000C943C000C943C0092
:100010000C943C000C943C000C943C000C943C0070
:100020000C943C000C943C000C943C000C943C0060
:100030000C943C000C943C000C943C000C943C0050
:100040000C943C000C943C000C943C000C943C0040
:100050000C943C0011241FBECFE5D8E0DEBFCDBF1D
:1000600020E0A0E6B0E001C01D92A236B207E1F7A1
:100070000E946A000C94C6010C940000109261006A
:100080001092600060E084E40E94550013BE089561
:1000900060E084E40E945C000E94850160E084E4EA
:1000A0000E9463000E94A6010895982F862F41E0C8
:1000B000692F0E946F000895982F862F41E0692FC5
:1000C0000E94FA000895982F862F40E0692F0E9421
:1000D000FA0008950E943E000E944800FDCF62345D
:1000E00059F118F4613441F00895633409F444C0BF
:1000F000643409F460C0089541110EC04AB321E090
:1001000030E0B90102C0660F771F8A95E2F7CB0194
:10011000809584238ABB0895413009F06AC04AB3B0
:1001200021E030E0B90102C0660F771F8A95E2F73F
:10013000CB01842B8ABB089541110EC047B321E047
:1001400030E0B90102C0660F771F8A95E2F7CB0154
:100150008095842387BB0895413009F04AC047B396
:1001600021E030E0B90102C0660F771F8A95E2F7FF
:10017000CB01842B87BB089541110EC044B321E00D
:1001800030E0B90102C0660F771F8A95E2F7CB0114
:100190008095842384BB0895413059F544B321E010
:1001A00030E0B90102C0660F771F8A95E2F7CB01F4
:1001B000842B84BB089541110EC041B321E030E08F
:1001C000B90102C0660F771F8A95E2F7CB018095CF
:1001D000842381BB0895413061F441B321E030E0D4
:1001E000B90102C0660F771F8A95E2F7CB01842B15
:1001F00081BB0895623459F118F4613441F00895D7
:10020000633409F444C0643409F460C008954111B2
:100210000EC04BB321E030E0B90102C0660F771F7A
:100220008A95E2F7CB01809584238BBB08954130FA
:1002300009F06AC04BB321E030E0B90102C0660F9B
:10024000771F8A95E2F7CB01842B8BBB0895411170
:100250000EC048B321E030E0B90102C0660F771F3D
:100260008A95E2F7CB018095842388BB08954130BD
:1002700009F04AC048B321E030E0B90102C0660F7E
:10028000771F8A95E2F7CB01842B88BB0895411133
:100290000EC045B321E030E0B90102C0660F771F00
:1002A0008A95E2F7CB018095842385BB0895413080
:1002B00059F545B321E030E0B90102C0660F771F60
:1002C0008A95E2F7CB01842B85BB089541110EC0BE
:1002D00042B321E030E0B90102C0660F771F8A9572
:1002E000E2F7CB018095842382BB0895413061F40D
:1002F00042B321E030E0B90102C0660F771F8A9552
:10030000E2F7CB01842B82BB089583B7846083BF5F
:1003100011C08CE082BF08B600FEFDCF88B78160B7
:1003200088BF809160009091610001969093610078
:10033000809360008091600090916100089748F37D
:10034000109261001092600013BE089585E083BF93
:1003500011C08EE682BF08B600FEFDCF88B781606F
:1003600088BF809160009091610001969093610038
:10037000809360008091600090916100029748F343
:10038000109261001092600013BE0895F894FFCFA0
:00000001FF
